:020000040800F2
:1000000000500020D5010008C9010008C9010008FE
:10001000C9010008C9010008C9010008000000006A
:10002000000000000000000000000000C9010008FE
:10003000C901000800000000C9010008C90100084A
:10004000C9010008C9010008C9010008C901000868
:10005000C9010008C90100089D010008C901000884
:10006000C9010008C9010008C9010008C901000848
:10007000C9010008C9010008C9010008C901000838
:10008000C9010008C9010008C9010008C901000828
:10009000C9010008C9010008C9010008C901000818
:1000A000C9010008C9010008C9010008C901000808
:1000B000C9010008C9010008C9010008C9010008F8
:1000C000C9010008C9010008C9010008C9010008E8
:1000D000C9010008C9010008C9010008C9010008D8
:1000E000C9010008C9010008C9010008000000009A
:1000F0000000000000000000000000000000000000
:0C0100000000000000000000C901000821
:10010C0080B400AF1A4B1B68194A43F00403136008
:10011C00184B1B68174A43F001031360164B1B68FE
:10012C00154A43F004031360144B1B68134A23F461
:10013C0070031360114B1B68104A43F400131360D7
:10014C000F4B0F4A1B6813600E4B1B680D4A43F094
:10015C00010313600C4B1B680B4A43F00103136043
:10016C000A4B1B68094A43F040031360FEE700BFCB
:10017C00181002400C100240000801400408014015
:10018C0008000140080401400004014000E100E0C7
:10019C0080B400AF074B1B68064A83F4005313600E
:1001AC00054B1B68044A43F00103136000BFBD46B6
:1001BC0080BC70470C0801401404014080B500AFAE
:1001CC0000F002F800BF80BD80B586B000AF002300
:1001DC007B601B4B7B611B4B3B611B4A194BD31A3E
:1001EC009B107B600023FB600AE07A69131D7B6126
:1001FC003B69191D396112681A60FB680133FB6099
:10020C00FA687B689A42F0D3104A114BD31A9B10B0
:10021C007B600F4B3B610023BB6007E03B691A1D01
:10022C003A6100221A60BB680133BB60BA687B6814
:10023C009A42F3D3FFF764FF00BF1837BD4680BD69
:10024C0064020008000000200000002000000020D4
:04025C00000000207E
:04026000005000202A
:040000050800010CE2
:00000001FF
