:020000040800F2
:10000000005000202D0100082101000821010008F6
:100010002101000821010008210100080000000062
:1000200000000000000000000000000021010008A6
:100030002101000800000000210100082101000842
:100040002101000821010008210100082101000808
:1000500021010008210100082101000821010008F8
:1000600021010008210100082101000821010008E8
:1000700021010008210100082101000821010008D8
:1000800021010008210100082101000821010008C8
:1000900021010008210100082101000821010008B8
:1000A00021010008210100082101000821010008A8
:1000B0002101000821010008210100082101000898
:1000C0002101000821010008210100082101000888
:1000D0002101000821010008210100082101000878
:1000E0002101000821010008210100080000000092
:1000F0000000000000000000000000000000000000
:0C010000000000000000000021010008C9
:10010C0080B500AF024800F051F800BF80BD00BFC1
:10011C000000002080B500AF00F002F800BF80BDE9
:10012C0080B586B000AF00237B601B4B7B611B4B03
:10013C003B611B4A194BD31A9B107B600023FB605D
:10014C000AE07A69131D7B613B69191D39611268DC
:10015C001A60FB680133FB60FA687B689A42F0D343
:10016C00104A114BD31A9B107B600F4B3B61002341
:10017C00BB6007E03B691A1D3A6100221A60BB683C
:10018C000133BB60BA687B689A42F3D3FFF7B8FFC0
:10019C0000BF1837BD4680BDEC01000800000020F0
:1001AC0064000020640000206400002080B483B050
:1001BC0000AF786006E07B681A78074B1A607B68A2
:1001CC0001337B607B681B78002BF4D100BF00BF30
:0C01DC000C37BD4680BC704700101F109F
:0401E80000500020A3
:1001EC006C6561726E2D696E2D6465707468203A51
:1001FC00204E616779000000000000000000000044
:10020C0000000000000000000000000000000000E2
:10021C0000000000000000000000000000000000D2
:10022C0000000000000000000000000000000000C2
:10023C0000000000000000000000000000000000B2
:04024C0000000000AE
:040000050800010CE2
:00000001FF
