:020000040800F2
:10000000005000209D0100089101000891010008A6
:100010009101000891010008910100080000000012
:100020000000000000000000000000009101000836
:1000300091010008000000009101000891010008F2
:100040009101000891010008910100089101000848
:100050009101000891010008910100089101000838
:100060009101000891010008910100089101000828
:100070009101000891010008910100089101000818
:100080009101000891010008910100089101000808
:1000900091010008910100089101000891010008F8
:1000A00091010008910100089101000891010008E8
:1000B00091010008910100089101000891010008D8
:1000C00091010008910100089101000891010008C8
:1000D00091010008910100089101000891010008B8
:1000E0009101000891010008910100080000000042
:1000F0000000000000000000000000000000000000
:0C01000000000000000000009101000859
:10010C0080B483B000AF1A4B1B68194A23F47003F8
:10011C001360174B1B68164A43F400131360154BFE
:10012C001B68144A43F004031360134B1B68124AF8
:10013C0043F001031360114B1B68104A43F4205326
:10014C0013600E4B1B680D4A43F4806313600C4B19
:10015C001B680B4A83F40053136000237B6002E09E
:10016C007B6801337B607B68B3F57A7FF8DBEEE765
:10017C000408014018100240001002400410024014
:10018C000C08014080B500AF00F002F800BF80BD44
:10019C0080B586B000AF00237B601B4B7B611B4B93
:1001AC003B611B4A194BD31A9B107B600023FB60ED
:1001BC000AE07A69131D7B613B69191D396112686C
:1001CC001A60FB680133FB60FA687B689A42F0D3D3
:1001DC00104A114BD31A9B107B600F4B3B610023D1
:1001EC00BB6007E03B691A1D3A6100221A60BB68CC
:1001FC000133BB60BA687B689A42F3D3FFF780FF88
:10020C0000BF1837BD4680BD2C020008000000203E
:0C021C0000000020000000200000002076
:040228000050002062
:040000050800010CE2
:00000001FF
