:020000040800F2
:10000000005000208D0100088101000881010008D6
:100010008101000881010008810100080000000042
:100020000000000000000000000000008101000846
:100030008101000800000000810100088101000822
:100040008101000881010008810100088101000888
:100050008101000881010008810100088101000878
:100060008101000881010008810100088101000868
:100070008101000881010008810100088101000858
:100080008101000881010008810100088101000848
:100090008101000881010008810100088101000838
:1000A0008101000881010008810100088101000828
:1000B0008101000881010008810100088101000818
:1000C0008101000881010008810100088101000808
:1000D00081010008810100088101000881010008F8
:1000E0008101000881010008810100080000000072
:1000F0000000000000000000000000000000000000
:0C01000000000000000000008101000869
:10010C0080B483B000AF184B1B68174A43F004034C
:10011C001360164B1B6823F47003144A03F5001389
:10012C001360134B1B68124A43F4005313600023F3
:10013C00FB8002E0FB880133FB80FB8842F20F72EC
:10014C009342F7D90A4B1B68094A23F400531360F6
:10015C000023BB8002E0BB880133BB80BB8842F22A
:10016C000F729342F7D9DCE71810024004080140E3
:10017C000C08014080B500AF00F002F800BF80BD54
:10018C0080B586B000AF00237B601B4B7B611B4BA3
:10019C003B611B4A194BD31A9B107B600023FB60FD
:1001AC000AE07A69131D7B613B69191D396112687C
:1001BC001A60FB680133FB60FA687B689A42F0D3E3
:1001CC00104A114BD31A9B107B600F4B3B610023E1
:1001DC00BB6007E03B691A1D3A6100221A60BB68DC
:1001EC000133BB60BA687B689A42F3D3FFF788FF90
:1001FC0000BF1837BD4680BD1C020008000000205F
:0C020C0000000020000000200000002086
:040218000050002072
:040000050800010CE2
:00000001FF
