:020000040800F2
:1000000000500020810100080D02000819020008BC
:1000100025020008310200083D020008000000002F
:10002000000000000000000000000000490200087D
:100030005502000800000000610200086D0200087F
:100040007902000885020008910200089D0200085C
:10005000A9020008B5020008C1020008CD0200088C
:10006000D9020008E5020008F1020008FD020008BC
:100070000903000815030008210300082D030008E8
:100080003903000845030008510300085D03000818
:100090006903000875030008810300088D03000848
:1000A00099030008A5030008B1030008BD03000878
:1000B000C9030008D5030008E1030008ED030008A8
:1000C000F903000805040008110400081D040008D5
:1000D0002904000835040008410400084D04000804
:1000E00059040008650400087104000800000000BD
:1000F0000000000000000000000000000000000000
:0C01000000000000000000007D0400086A
:10010C0080B483B000AF184B1B68174A43F004034C
:10011C001360164B1B6823F47003144A03F5001389
:10012C001360134B1B68124A43F4005313600023F3
:10013C007B6002E07B6801337B607B6842F20F726C
:10014C009342F7DD0A4B1B68094A23F400531360F2
:10015C0000233B6002E03B6801333B603B6842F2AA
:10016C000F729342F7DDDCE71810024004080140DF
:10017C000C08014080B586B000AF00237B601B4BA0
:10018C007B611B4B3B611B4A194BD31A9B107B6049
:10019C000023FB600AE07A69131D7B613B69191D22
:1001AC00396112681A60FB680133FB60FA687B687E
:1001BC009A42F0D3104A114BD31A9B107B600F4B11
:1001CC003B610023BB6007E03B691A1D3A610022CA
:1001DC001A60BB680133BB60BA687B689A42F3D380
:1001EC00FFF78EFF00BF1837BD4680BD980400088E
:1001FC000000002000000020000000200000002073
:10020C0080B400AF00BFBD4680BC704780B400AF67
:10021C0000BFBD4680BC704780B400AF00BFBD4678
:10022C0080BC704780B400AF00BFBD4680BC704737
:10023C0080B400AF00BFBD4680BC704780B400AF37
:10024C0000BFBD4680BC704780B400AF00BFBD4648
:10025C0080BC704780B400AF00BFBD4680BC704707
:10026C0080B400AF00BFBD4680BC704780B400AF07
:10027C0000BFBD4680BC704780B400AF00BFBD4618
:10028C0080BC704780B400AF00BFBD4680BC7047D7
:10029C0080B400AF00BFBD4680BC704780B400AFD7
:1002AC0000BFBD4680BC704780B400AF00BFBD46E8
:1002BC0080BC704780B400AF00BFBD4680BC7047A7
:1002CC0080B400AF00BFBD4680BC704780B400AFA7
:1002DC0000BFBD4680BC704780B400AF00BFBD46B8
:1002EC0080BC704780B400AF00BFBD4680BC704777
:1002FC0080B400AF00BFBD4680BC704780B400AF77
:10030C0000BFBD4680BC704780B400AF00BFBD4687
:10031C0080BC704780B400AF00BFBD4680BC704746
:10032C0080B400AF00BFBD4680BC704780B400AF46
:10033C0000BFBD4680BC704780B400AF00BFBD4657
:10034C0080BC704780B400AF00BFBD4680BC704716
:10035C0080B400AF00BFBD4680BC704780B400AF16
:10036C0000BFBD4680BC704780B400AF00BFBD4627
:10037C0080BC704780B400AF00BFBD4680BC7047E6
:10038C0080B400AF00BFBD4680BC704780B400AFE6
:10039C0000BFBD4680BC704780B400AF00BFBD46F7
:1003AC0080BC704780B400AF00BFBD4680BC7047B6
:1003BC0080B400AF00BFBD4680BC704780B400AFB6
:1003CC0000BFBD4680BC704780B400AF00BFBD46C7
:1003DC0080BC704780B400AF00BFBD4680BC704786
:1003EC0080B400AF00BFBD4680BC704780B400AF86
:1003FC0000BFBD4680BC704780B400AF00BFBD4697
:10040C0080BC704780B400AF00BFBD4680BC704755
:10041C0080B400AF00BFBD4680BC704780B400AF55
:10042C0000BFBD4680BC704780B400AF00BFBD4666
:10043C0080BC704780B400AF00BFBD4680BC704725
:10044C0080B400AF00BFBD4680BC704780B400AF25
:10045C0000BFBD4680BC704780B400AF00BFBD4636
:10046C0080BC704780B400AF00BFBD4680BC7047F5
:10047C0080B400AF00BFBD4680BC704780B400AFF5
:08048C0000BFBD4680BC7047B3
:0404940000500020F4
:040000050800010CE2
:00000001FF
