:1000000000100020B5000000A9000000A9000000B9
:1000100080B483B000AF1F4B1B681E4A43F020031F
:10002000136000237B6002E07B6801337B607B68A8
:10003000194A9342F8DD194B1B68184A43F008032C
:100040001360174B1B68164A43F008031360154BE7
:100050001B68144A43F00803136000237B6002E02E
:100060007B6801337B607B6840F6B7329342F7DDF3
:100070000C4B1B680B4A23F00803136000237B60C2
:1000800002E07B6801337B607B6840F6B7329342C5
:10009000F7DDDCE708E10F40DF9304001C55024068
:1000A00000540240FC53024080B500AF00F002F85B
:1000B00000BF80BD80B586B000AF1A4A1A4BD31A74
:1000C0007B601A4B7B61184B3B610023FB600AE0AD
:1000D0007A69531C7B613B69591C396112781A702B
:1000E000FB680133FB60FB687A689A42F0D8104ADB
:1000F000104BD31A3B600F4B3B610023BB6007E002
:100100003B695A1C3A6100221A70BB680133BB601C
:10011000BB683A689A42F3D8FFF77AFF00BF1837F6
:10012000BD4680BD00000020000000203801000016
:08013000000400200000002083
:00000001FF
