:020000040800F2
:10000000005000207101000865010008650100082A
:100010006501000865010008650100080000000096
:100020000000000000000000000000006501000862
:100030006501000800000000650100086501000876
:1000400065010008650100086501000865010008F8
:1000500065010008650100086501000865010008E8
:1000600065010008650100086501000865010008D8
:1000700065010008650100086501000865010008C8
:1000800065010008650100086501000865010008B8
:1000900065010008650100086501000865010008A8
:1000A0006501000865010008650100086501000898
:1000B0006501000865010008650100086501000888
:1000C0006501000865010008650100086501000878
:1000D0006501000865010008650100086501000868
:1000E00065010008650100086501000800000000C6
:1000F0000000000000000000000000000000000000
:0C01000000000000000000006501000885
:10010C0080B483B000AF114B1B68104A23F470030A
:10011C0013600E4B1B680D4A43F4001313600C4B19
:10012C001B680B4A43F0040313600A4B1B68094A13
:10013C0083F40053136000237B6002E07B6801337F
:10014C007B607B68B3F57A7FF8DBEEE7040801404F
:10015C00181002400C08014080B500AF00F002F806
:10016C0000BF80BD80B586B000AF00237B601B4B09
:10017C007B611B4B3B611B4A194BD31A9B107B6059
:10018C000023FB600AE07A69131D7B613B69191D32
:10019C00396112681A60FB680133FB60FA687B688E
:1001AC009A42F0D3104A114BD31A9B107B600F4B21
:1001BC003B610023BB6007E03B691A1D3A610022DA
:1001CC001A60BB680133BB60BA687B689A42F3D390
:1001DC00FFF796FF00BF1837BD4680BD0002000830
:1001EC000000002000000020000000200000002083
:0401FC00005000208F
:040000050800010CE2
:00000001FF
